:100000000C9479000C9492020C9496000C94960037
:100010000C9496000C9496000C9496000C94960008
:100020000C9496000C9496000C9496000C949600F8
:100030000C94C70A0C9496000C9496000C949600AD
:100040000C94A6030C9496000C9496000C949600C5
:100050000C9496000C9496000C9415020C94960047
:100060000C9496000C949600408000C003000E3261
:100070000A400000FF030010190A200000000001E0
:100080000172071000000000010158070200C200C1
:10009000C30101530782C000FF0304044C0882001F
:1000A00001FF030202FF07028001C0030303E2080D
:1000B000020042C0C304047608028042C0C301109B
:1000C0002608020043FFFF0202D107028003FF035C
:1000D00002024B07040104050170060154070102E6
:1000E0000D01FF1201840C0100170111180134FFEA
:1000F00000FF11241FBECFEFD4E0DEBFCDBF11E063
:10010000A0E0B1E0E4E1FEE102C005900D92A23072
:10011000B107D9F714E0A2E0B1E001C01D92AE3CF6
:10012000B107E1F70E94880E0C94080F0C940000B0
:100130001F93DC011FB7F894ED91FC911197309754
:1001400051F0CF01078CF0A1E02D3097D1F7FC01E1
:1001500070A3678F07C06D937C934115510511F013
:10016000FA01099517FF01C078941F910895DC01E9
:100170009FB7F894ED91FC911197278D30A130979E
:1001800041F0818180FD10822D933C9397FF01C047
:1001900078940895EDE1F1E01082B19683E0EF36B6
:1001A000F807D1F70895EDE1F1E020E030E080813B
:1001B0008823B9F4F90185E0EE0FFF1F8A95E1F776
:1001C000E20FF31FE35EFE4F81E0808381831482A0
:1001D00010A2178E81E2289F90011124235E3E4FCA
:1001E0000BC02F5F3F4FB1962231310501F784E0FC
:1001F0000E94280320E030E0C90108959C01F9998C
:10020000FECF32BD21BDF89A80B508959C01805083
:1002100091408F3F910509F028F4F999FECF92BDE6
:1002200081BD0BC0C9018E5C9040429750F4F99992
:10023000FECF2E5C3F4F32BD21BD60BDFA9AF99AC8
:1002400008952831310548F4F999FECF2E5E3E4FCE
:1002500032BD21BD60BDFA9AF99A0895E09102017C
:10026000F09103018081813089F482E080833596AA
:10027000248181819281F999FECF92BD81BD20BDFB
:10028000FA9AF99A83818F5F8383FB9A08959C0180
:100290008036910519F48091730308958050914040
:1002A0008F3F910591F088F0C9018E5C9040429794
:1002B00018F4C901C29609C02831310518F080E050
:1002C00090E003C0C9018F5E9E4FE0916F03F091F3
:1002D0007003E80FF91F8081089520E080910201EA
:1002E00090910301892B09F021E0822F0895AB0141
:1002F00070937203609371039093700380936F0304
:100300002EEF30E060E070E00E94B50E089540E00E
:1003100050E0DC01A40FB51FFD01659174911296A8
:10032000FD01A4919B01205031402F3F310509F080
:1003300038F4F999FECF32BD21BDA0BDFA9AF99AE1
:100340006F3F710531F04D5F5F4FF3E040365F075F
:1003500001F740917103509172032EEF30E060E09D
:1003600070E080916F03909170030E94B50E089524
:10037000CF92DF92EF92FF920F931F93CF93DF9371
:100380009C01062F6A01EC01C050D140CF3FD1053E
:10039000B9F0B0F08E5C9040429718F4E901E29613
:1003A0000FC02831310520F4E901CF5EDE4F08C0CF
:1003B0002036310589F5DA018C91809373032CC0C6
:1003C0001FB7F8940E94D3007C0117FF01C07894F6
:1003D000F7013596D283C183D70115960C9313820A
:1003E0009701275F3F4F402F50E0B601C9010E949F
:1003F000AC0E20916F03309170032C0F3D1F402FE6
:1004000050E0B601C9010E94AC0E4EE251E0B701C6
:1004100082E091E00E949800DF91CF911F910F91AF
:10042000FF90EF90DF90CF9008951F920F920FB63C
:100430000F9211242F933F934F935F936F937F936A
:100440008F939F93AF93BF93EF93FF93E09102013C
:10045000F0910301DF01159613962C911397858176
:10046000821761F482E091E00E94B700809102015E
:1004700090910301892BB1F4FB9814C0FD01E20FA8
:10048000F11D348111968D919C911297F999FECFAF
:10049000820F911D92BD81BD30BDFA9AF99A2F5FEE
:1004A00013962C93FF91EF91BF91AF919F918F91F4
:1004B0007F916F915F914F913F912F910F900FBE60
:1004C0000F901F90189523B121709091730390FDA8
:1004D00011C080910401882311F02098289A2223CA
:1004E00049F480910001882329F4209A289891608A
:1004F0009093730320930001809173038170809324
:1005000004010895809311010895F89428E088E18A
:1005100090E00FB6F894A895809360000FBE2093EA
:100520006000FFCF1F920F920FB60F9211248F938E
:100530009F93EF93FF9385B5887F85BD14BC8FE9AA
:1005400086BDEEE6F0E080818160808392E095BD1B
:10055000E89880910C018B7F80930C01109205012B
:1005600090937403FF91EF919F918F910F900FBE25
:100570000F901F90189590911301A0910F01B091C9
:10058000100180911201FD01E80FF11D858198276E
:100590009093130180911201FD01E80FF11D258157
:1005A0008F5F80931201822F90E0880F991F9C60CB
:1005B0009093080180930701022E22952025022E98
:1005C00026952695202530E02F5F3F4F21FF09C05B
:1005D00080910701909108019260909308018093A7
:1005E000070181E0809374039091120114968C911D
:1005F000981718F082E08093060108951F93809168
:100600000C0182FF23C080910C018B7F80930C0131
:10061000E0910F01F091100182E0808310921201AD
:100620001092130111E0109306010E94BB02E8989A
:100630001093740385B5887F85BD14BC8FEF86BD8C
:1006400080916E00816080936E0015BD1F910895AA
:100650005C98209A289891E040E45CE960E27EE4AE
:1006600017C0289821E030E0FA013197F1F72F5FA9
:100670003F4F25363105C1F7289A21E030E0FA01D5
:100680003197F1F72F5F3F4F25363105C1F79F5F57
:10069000891738F721E030E0FB013197F1F72F5F40
:1006A0003F4F93E0293E3907B9F791E0F1CF5298D7
:1006B0005A9A549A5C982098289AE9E6F0E080814A
:1006C0008260808380818E7F8083E89A1092080107
:1006D000109207011092090110920C0110927403FC
:1006E000109205011092730308954EEF52E0BC0181
:1006F0008FE091E00E94980080E00895E0910F0162
:10070000F0911001868D8150868F8F5F21F4818159
:100710008260818306C084E080838FE091E00E9444
:10072000B70080910C018F7D80930C0194E0909331
:10073000050185B5887F85BD14BC8CE586BD80919B
:100740006E00816080936E0095BD08951F920F9298
:100750000FB60F9211240F931F932F933F934F9334
:100760005F936F937F938F939F93AF93BF93CF9339
:10077000DF93EF93FF9340917403842F90E041FF48
:100780009AC110910501123009F407C1133030F4F9
:10079000112359F0113009F062C292C0133009F4EC
:1007A00055C2143009F05BC236C185B5887F85BD5E
:1007B00014BC81EA86BD80916E00816080936E00DA
:1007C00082E085BD20910A0130910B0180E041E07B
:1007D0004A9B40E08F5F8530D9F7942F990F990F8E
:1007E000990F80E0EC01C22BD32BD695C795809151
:1007F00009018F5F8093090181508A3008F45BC042
:1008000085B5887F85BD14BC83ED86BD80916E0063
:10081000816080936E0083E085BD10920901CE0156
:10082000807096708050964021F080910C01806815
:1008300019C01C2F8C2F082E82958025082E869596
:100840008695802590E001969595879581709070AA
:100850002D2F3327217030708217930731F080914C
:100860000C01806480930C0121C080910D01909156
:100870000E01892B31F40E94D30090930E018093D6
:100880000D01A0910D01B0910E01109779F0149611
:100890008C911497FD01E80FF11D15838F5F14965D
:1008A0008C9314978A3110F014961C92E09AE89A6F
:1008B00081E080930501D0930B01C0930A01CFC161
:1008C00085B5887F85BD14BC8DE686BD80916E00A0
:1008D000816080936E0083E085BD80910C01816012
:1008E00080930C0182E080930501A0910D01B091ED
:1008F0000E01109709F4B3C180910C01807C79F04E
:1009000080910C018F7780930C0180910C018F7B7B
:1009100080930C018CE0809311015C9830C0149698
:100920008C911497813041F5E0910F01F091100105
:10093000309729F18081833011F515968C918C3C8C
:10094000C1F414E010838FE091E00E94B70010938F
:10095000050182E08093740385B5887F85BD14BC52
:100960008CE586BD80916E00816080936E0015BD20
:1009700006C00E947E0303C0CD010E947D068091C7
:1009800011018111E898E0910D01F0910E011082A2
:1009900010920E0110920D0162C180911101882305
:1009A00051F120911101822F90E0880F991F9C60D6
:1009B0009093080180930701022E22952025022E94
:1009C00026952695202530E02F5F3F4F21FF09C057
:1009D00080910701909108019260909308018093A3
:1009E0000701E89891E09093740385B5887F85BDF1
:1009F00014BC8FEF08C094E09093050185B5887F03
:100A000085BD14BC8CE586BD80916E0081608093AD
:100A10006E0095BD24C185B5887F85BD14BC16BC0C
:100A200080916E00816080936E0015BCE0910F0193
:100A3000F09110013097C9F100810130F9F48091F3
:100A40000C018B7F80930C0182E080831092120155
:100A500010921301009306010E94BB02E8980093D4
:100A6000740385B5887F85BD14BC8FEF86BD8091EA
:100A70006E00816080936E0005BDF1C010838FE031
:100A800091E00E94B7001093050182E08093740307
:100A900085B5887F85BD14BC8CE586BD80916E00D0
:100AA000816080936E0015BDDAC080910C01846076
:100AB00080930C01D4C09C012170307040FF14C0A1
:100AC00042FF12C085B5887F85BD14BC83EC86BD0E
:100AD00080916E00816080936E0082E085BD5C989D
:100AE0004B7F40937403BBC0232B09F4B8C0209103
:100AF00007013091080120FF5C9A85B5887F85BD8C
:100B000014BC88EE86BD80916E00816080936E007B
:100B100052E055BD4460409374032130310509F023
:100B200098C085B5887F85BD14BC16BC80916E00C9
:100B3000816080936E0015BC5C98809111018823C0
:100B4000B1F085B5887F85BD14BC82E686BD8091F5
:100B50006E00816080936E0084E085BD109211016B
:100B6000E09AE89A509374038093050178C0E0916D
:100B70000F01F0911001309709F471C090910601B6
:100B80009230E1F0933020F4913009F068C007C052
:100B9000933009F444C0943009F061C057C085B562
:100BA000887F85BD14BC8CE386BD80916E0081601A
:100BB00080936E0055BD0E94BB0251C085B5887FF1
:100BC00085BD14BC8CE886BD80916E0081608093E9
:100BD0006E0095BD209113012095822F90E0880F23
:100BE000991F9C609093080180930701022E229523
:100BF0002025022E26952695202530E02F5F3F4F99
:100C000021FF09C0809107019091080192609093A3
:100C100008018093070183E08093060120C085B519
:100C2000887F85BD14BC81EE86BD80916E00816099
:100C300080936E0084E085BD9083109206019093AE
:100C4000050150937403E09AE89A09C00E947E035C
:100C500006C0369527953093080120930701FF9130
:100C6000EF91DF91CF91BF91AF919F918F917F9144
:100C70006F915F914F913F912F911F910F910F9025
:100C80000FBE0F901F9018950F931F93CF93DF9374
:100C90000E94D300EC01009759F18C010B5F1F4FAC
:100CA00080910C01846080930C0183E08E8F89E039
:100CB0008C8380EB8D8387E191E00E944701F801EE
:100CC000818388E191E00E944701F801828381E1FC
:100CD00083838EEF848383EF858380EC868380E833
:100CE00087834EEF52E0BE018FE091E00E949800B2
:100CF000DF91CF911F910F910895EF92FF920F9383
:100D00001F93CF93DF938C01FC018481813009F420
:100D1000BAC020E090E0A82FB0E0119705C0E00F26
:100D2000F11F858198272F5FE22FF0E0EA17FB077C
:100D3000B4F39095A00FB11F15968C91981709F0F8
:100D4000A2C0E80125962B813C81922F80E0432FA1
:100D500050E0482B592B7D818E81E82EFF24972F60
:100D600080E0DC01AE29BF29CD018C7F90788050D6
:100D70009048D9F4222359F080917503E6E7F3E017
:100D8000282F30E0220F331F2E0F3F1F0BC03323BD
:100D900099F760E80BC0819191914817590711F4B8
:100DA00060E42AC0E217F307B1F760E0CD01907864
:100DB0008038910549F480919C0390919D034817D8
:100DC000590769F460620BC08138910541F4809144
:100DD0009C0390919D034817590709F4606177FDC2
:100DE00008C080919C0390919D034817590709F40E
:100DF0006260662309F447C07F707F5FBE2DAA271B
:100E00008F8190E0A82BB92B88E6E82E80E0F82EA1
:100E1000F701849197012F5F3F4FF901C591D4915C
:100E200097012D5F3F4FF9014591549125E030E046
:100E3000E20EF31EF70124910894E11CF11CF70166
:100E40009491EAEFFFEFEE0EFF1E862391F04A2306
:100E50005B23C417D50769F4721758F0971748F049
:100E6000C7010796FC0125913491C801F901099544
:100E70000BC0FBECEF16F0E0FF0629F029E030E0B4
:100E8000E20EF31EC5CF80E0DF91CF911F910F914D
:100E9000FF90EF9008950E946D018823E1F70E9472
:100EA000850280E008958CEC0E94820280E0089523
:100EB000FC013596909115018181981771F49091FC
:100EC00016018281981749F480911401882329F032
:100ED0001092140181E0809317018CEC0E94820231
:100EE00080E00895FC0180911401882361F4359617
:100EF00091E0909314018181809315018281809308
:100F00001601909317018CEC0E94820280E00895F4
:100F10001F93CF93DF93EC01162F0E94D300DC01C7
:100F2000009709F1FC01359683E05E968C935E97FD
:100F300080EB15968C93159790919C0380919D035F
:100F400081839283812F8150806F8583209729F040
:100F5000888183838981848302C0138214821A5F0B
:100F600014961C931497CD01DF91CF911F91089592
:100F7000CF93DF93EC01259661E006960E948807E7
:100F80009C01009759F0FC01359680E685838E819F
:100F9000806C8E7F8683C9010E947503DF91CF919B
:100FA0000895EF92FF920F931F93CF93DF937C01ED
:100FB00064E006960E948807EC01009711F480E037
:100FC00017C08C010B5F1F4F8CEC0E948202C7017F
:100FD0000E94B80783E6F801858383E4868380E472
:100FE00087831D8682E18E87CE010E9475038CEC7B
:100FF000DF91CF911F910F91FF90EF900895EF92A5
:10100000FF920F931F938091730380FF19C062E0DA
:1010100080E090E00E9488078C0175E0E72EF12CBB
:10102000E80EF91E8CEC0E9482028CEBF80185839D
:1010300081E0F701868380E48783C8010E947503FD
:101040008CEC1F910F91FF90EF900895DF92EF923B
:10105000FF920F931F937C01FC01D484FFE0DF22F9
:10106000FC01158500E08685080F111D8CEC0E949F
:101070008202C7010E94B8078FE090E0E80EF91ED7
:10108000A7016D2DC8010E94B8018CEC1F910F9132
:10109000FF90EF90DF9008950F931F93CF93DF930E
:1010A000EC018091730380FF1BC08E01035F1F4F13
:1010B0008CEC0E9482023D8520E030939D032093BA
:1010C0009C03F801818190E0822B932B90939D03E8
:1010D00080939C03A80162E087E191E00E94B8013F
:1010E00080E0DF91CF911F910F9108958F929F9291
:1010F000AF92BF92CF92DF92EF92FF920F93DF9366
:10110000CF9300D0CDB7DEB74C01FC0104850F7042
:10111000958580E026855C01A20EB11C6501602FDB
:101120006C5FC40106960E9488077C01009711F449
:1011300080E03AC005969A8389838CEC0E948202F3
:10114000C4010E94B8070D59E981FA81058303564D
:1011500080911701880F880F82648683802F8064B6
:101160008783F4018585F7018587F4018685F7017A
:101170008687470108C0C6010E944701F40186879F
:101180000894C11CD11C0894811C911C8C2D8A19B7
:10119000801788F3C7010E947503809117018F5F44
:1011A0008F70809317018CEC0F900F90CF91DF918F
:1011B0000F91FF90EF90DF90CF90BF90AF909F90F6
:1011C0008F9008959F92AF92BF92CF92DF92EF924D
:1011D000FF920F931F93CF93DF93EC019C849D8527
:1011E00080E02E855C01A20EB11C650163E0CE019A
:1011F00006960E9488077C01009711F480E031C0B8
:101200008C010B5F1F4F8CEC0E948202CE010E946A
:10121000B80786E6F801858380911701880F880F4B
:101220008364868383E887838D85F70185878E8530
:101230008687E70107C0C6010E9447018E87089490
:10124000C11CD11C21968C2D8A198915A0F3C701C8
:101250000E947503809117018F5F8F708093170133
:101260008CECDF91CF911F910F91FF90EF90DF9069
:10127000CF90BF90AF909F900895CF92DF92EF9262
:10128000FF920F931F93F82ED62E81E191E00E94DA
:101290004701082F10E0C80180509F4F0E9447016E
:1012A000C82EDF0C0F5F1E4FEE2410C0C8010E9435
:1012B0004701F82E8EEFF81631F0C80101960E9412
:1012C00047018D1531F0E3940E5F1F4FEC1470F35E
:1012D000FF248F2D1F910F91FF90EF90DF90CF9003
:1012E0000895EF92FF920F931F93CF93DF93F62E03
:1012F000642F0E943D09E82E8823D1F10E94D3007B
:10130000EC010097A9F18C010B5F1F4F83E08E8FDA
:1013100088E08C838CEB8D8387E191E00E9447010C
:10132000D80111968C9388E191E00E944701F80161
:101330008283EE2DF0E0EE0FFF1FED58FC4F82810F
:10134000D80113968C931397818114968C931497DC
:1013500081EE15968C93159716961C92BFE7FB228B
:10136000E0E8FE0ED8011796FC92CE010E947503AC
:10137000DF91CF911F910F91FF90EF900895DF9231
:10138000EF92FF920F931F93CF93DF93E82ED62E09
:10139000642F0E943D09F82E882309F442C00E9460
:1013A000D300EC010097E9F18C010B5F1F4F83E044
:1013B0008E8F89E08C838CEB8D8387E191E00E9496
:1013C0004701D80111968C9388E191E00E94470172
:1013D000F8018283EF2DF0E0EE0FFF1FED58FC4F78
:1013E0008281D80113968C931397818114968C93E4
:1013F000149781ED15968C93159716961C9283EF92
:1014000091E00E94470190E002C095958795EA948B
:10141000E2F781708D258058F8018783CE010E9404
:101420007503DF91CF911F910F91FF90EF90DF90A7
:101430000895CF93DF93EC018DE091E00E94470186
:101440008F3F61F4CE010E94D10A8C3C21F40E94AE
:1014500082028CEC04C08CE00E9482028CE0DF915E
:10146000CF910895CF93DF93EC018DE091E00E943E
:1014700047018F3F61F4CE010E94D30A8C3C21F4D6
:101480000E9482028CEC04C08CE00E9482028CE0FC
:10149000DF91CF910895BF92CF92DF92EF92FF92AA
:1014A0000F931F93CF93DF93EC0187E191E00E94AC
:1014B0004701182F00E010939D0300939C0388E1DF
:1014C00091E00E94470190E0802B912B90939D0327
:1014D00080939C038F5F9F4FC1F4CE010E948701D0
:1014E00087E191E00E944701182F00E010939D03CF
:1014F00000939C0388E191E00E94470190E0082B53
:10150000192B10939D0300939C0386E191E00E94A8
:1015100047018F3F41F41092750399E1C92E91E084
:10152000D92EBB2426C08150809375038431A8F343
:10153000F2CF0B2D10E076010894E11CF11CC601DE
:101540000E944701D82FC0E0000F111F0B581C4FFD
:10155000F801D283C18382E090E0C80ED91EC70192
:101560000E94470190E08C2B9D2BF8019283818390
:10157000B39480917503B816E0F2DF91CF911F917B
:101580000F91FF90EF90DF90CF90BF9008951F9242
:101590000F920FB60F9211240F900FBE0F901F9055
:1015A00018958CEC08958CE008951F9313B126B123
:1015B00049B169B1E9B199B1A6B186B1991F99272D
:1015C000991F9295990F907E869586958695879519
:1015D00088278795892B169516951170812B26954E
:1015E00030E021703070220F331F822B46954695D4
:1015F000469550E041705070440F551F440F551FE1
:10160000842B62956695677070E06170707033E04E
:10161000660F771F3A95E1F7862BE295E695E695FA
:10162000E370F0E0E170F07024E0EE0FFF1F2A9508
:10163000E1F78E2BA695A695B0E0A170B07096E06C
:10164000AA0FBB1F9A95E1F78A2B1F91089583304B
:10165000D1F0843028F4813081F0823088F40AC0DF
:101660008530D1F08530A8F08630C9F08730E9F0B8
:1016700080E008958EEC91E014C08EEC91E005C0FE
:101680008FEC91E00EC08FEC91E00E9447018295B3
:101690000AC080ED91E005C080ED91E0F6CF81EDCC
:1016A00091E00E9447018F70089581ED91E00E94C2
:1016B000470182958F7008950F931F931092180120
:1016C000EEEBF4E010821182329684E0EE3CF807F3
:1016D000C9F784ED91E00E944701082F8EEF91E059
:1016E0000E94470110E082958F7002C0000F111F09
:1016F0008A95E2F700931C0110921A0110921901C9
:1017000010921B01229839985398559856985798DB
:101710003A983B982198299A3898409A5098589A24
:101720005198599A2398109280008BE08093810001
:1017300089E79FE390938900809388001092850049
:101740001092840081E01F910F910895DF92EF9233
:10175000FF920F931F93CF93DF93082FD62E142F52
:10176000E82EFF24C7018A589F4F880F991F880FC2
:10177000991F0E944701382FA701440F551FEA0106
:10178000C154DB4F2881822F829586958695837080
:1017900090E08130910509F460C08230910509F430
:1017A000CBC0892B09F0F6C01D21812F90E0002EBF
:1017B00002C0969587950A94E2F780FFEBC033FD4F
:1017C00004C040E060E0802F0FC034FF05C02062FD
:1017D000288340E061E006C035FF08C02F7D2883E4
:1017E00040E060E0802F885F0E947109C701019688
:1017F000959587958A509E4F0E94470190E0E0FEA4
:1018000006C034E0969587953A95E1F701968C01EC
:101810000F701070C701880F991F880F991F8A5287
:101820009E4F0E944701F701EE0FFF1FDF01A254F8
:10183000BB4F90E09C01209FC001219F900D309FE5
:10184000900D112401978C939F7011968C91E15407
:10185000FB4F8073892B80646DC0632F33FD6EC096
:10186000FA01E254FB4F80813181932F9F700097E2
:10187000D1F08150904F9F708083892F8F70307F7F
:10188000382B3183212F30E08D2D90E0809590957D
:1018900028233923002E02C0369527950A94E2F7B3
:1018A00020FF78C071C064FF05C02062288340E03B
:1018B00061E006C065FF08C02F7D288340E060E03E
:1018C000802F885F0E947109C701019695958795C1
:1018D00086509E4F0E94470190E0E0FE06C014E053
:1018E000969587951A95E1F701968C010F70107007
:1018F000C701880F991F880F991F89529E4F0E9418
:101900004701F701EE0FFF1FDF01A254BB4F90E02C
:101910009C01209FC001219F900D309F900D1124AC
:1019200001978C939F7011968C91E154FB4F8073BB
:10193000892B806880832EC033FD2AC0FA01E254CF
:10194000FB4F80813181932F9F70009709F1815067
:10195000904F9F708083892F8F70307F382B318319
:10196000212F30E08D2D90E080959095282339230C
:1019700002C036952795EA94E2F720FF0BC040E0BD
:1019800060E0802F0E94710988818F73888302C074
:101990002F732883DF91CF911F910F91FF90EF90CC
:1019A000DF900895CF92DF92FF920F931F93CF9312
:1019B000DF93F82ED62E042FC82FD0E0CE01880F4B
:1019C000991F880F991F89529E4F0E944701282F07
:1019D00010E00F2C02C0169507950A94E2F700FF5D
:1019E000CAC08D2D90E00F2C02C0959587950A9462
:1019F000E2F7C22EDD2480FF4BC0C6018C709070D0
:101A00008430910561F440E061E08F2D0E947109FE
:101A1000FE01EE0FFF1FE254FB4F81E028C088302B
:101A2000910559F440E060E08F2D0E947109FE019C
:101A3000EE0FFF1FE254FB4F11C00C97C9F48E014B
:101A4000000F111F02541B4FF8018081882341F0C1
:101A500040E060E08F2D0E947109F801108208C0FB
:101A600040E061E08F2D0E94710981E0F8018083E0
:101A7000C601807C90708034910509F44AC080389A
:101A8000910509F454C0803C910509F074C05CC014
:101A9000C601837090708130910561F440E061E08F
:101AA0008F2D0E947109FE01EE0FFF1FE254FB4FC4
:101AB00081E028C08230910559F440E060E08F2D2C
:101AC0000E947109FE01EE0FFF1FE254FB4F11C08F
:101AD0000397C9F48E01000F111F02541B4FF80128
:101AE0008081882341F040E060E08F2D0E947109E1
:101AF000F801108208C040E061E08F2D0E9471095A
:101B000081E0F8018083C601807390708031910577
:101B100059F440E061E08F2D885F0E947109CC0F7D
:101B2000DD1FC254DB4F25C08032910559F440E0DF
:101B300060E08F2D885F0E947109CC0FDD1FC254B9
:101B4000DB4F10C0C097B9F4CC0FDD1FC254DB4F80
:101B500089819F2D985F882339F040E060E0892FCC
:101B60000E947109198207C040E061E0892F0E943C
:101B7000710981E08983DF91CF911F910F91FF90CF
:101B8000DF90CF900895DF92EF92FF920F931F9313
:101B9000CF93DF938DE091E00E9447018F3F09F0E2
:101BA000AFC080911C01882309F460C081508093EC
:101BB0001C01882309F0A4C00E94D50A8093180153
:101BC000C0E0D0E045EDE42E41E0F42E08E0C7018E
:101BD0000E944701182F107C8C2F0E94270B813008
:101BE00019F08330C9F52CC0103431F440E061E0C5
:101BF0008C2F0E9471092BC0103831F440E060E056
:101C00008C2F0E9471091EC0103C31F560911801A3
:101C100070E00C2E02C0759567950A94E2F761702A
:101C200040E08C2F0E9471096091180170E00C2E29
:101C300002C0759567950A94E2F7617040E009C0AB
:101C4000103419F440E060E004C0103829F440E09A
:101C500061E0802F0E947109219684E090E0E80EF7
:101C6000F91E0F5F003109F0B2CF4AC0809119010F
:101C700090911A012FEF8F3F920751F410921A01A1
:101C80001092190180911B018F5F80931B0105C089
:101C9000019690931A0180931901009118010E94F6
:101CA000D50AF82EF02689F082ED91E00E944701D6
:101CB00090E028EE33E004C0F9013197F1F79F5F1F
:101CC0009817D0F30E94D50A082F10E0812F0E94A8
:101CD000270B813019F0833061F406C04F2D602F3F
:101CE000812F0E94D20C05C04F2D602F812F0E94A2
:101CF000A60B1F5F183051F7FF2011F00093180159
:101D0000DF91CF911F910F91FF90EF90DF90089599
:101D100014BE88E10FB6F8948093600010926000C2
:101D20000FBE0E94CA000E945703789460E271E0DF
:101D30008EE993E00E94770184ED90E00E944B0AC7
:101D40000E945C0B0E9444060E946302B19BFCCF80
:101D5000B19A0E94C30DF8CFFB01DC0102C00190D3
:101D60000D9241505040D8F70895A0E0B0E0EBEB61
:101D7000FEE00C94DB0E7C01EB018A01690109C0D5
:101D8000CE012196F6010995F70181937F0101505B
:101D9000104001151105A1F7CDB7DEB7E8E00C94AE
:101DA000F70E2F923F924F925F926F927F928F9297
:101DB0009F92AF92BF92CF92DF92EF92FF920F93DA
:101DC0001F93CF93DF93CDB7DEB7CA1BDB0B0FB6E4
:101DD000F894DEBF0FBECDBF09942A8839884888A1
:101DE0005F846E847D848C849B84AA84B984C88437
:101DF000DF80EE80FD800C811B81AA81B981CE0F2E
:101E0000D11D0FB6F894DEBF0FBECDBFED01089512
:041E1000F894FFCF74
:021E14000100CB
:00000001FF
