:1000000012C02CC02BC02AC029C028C027C026C0BF
:1000100025C025C023C013C321C020C01FC01EC0DF
:100020001DC01CC01BC011241FBECFE5D4E0DEBF25
:10003000CDBF11E0A0E6B0E0E0E6F9E002C0059037
:100040000D92A23FB107D9F712E0A2EFB1E001C0D3
:100050001D92A535B107E1F770D381C4D1CF1F92AE
:100060000F920FB60F9211242F933F934F938F93BC
:100070009F9320912F02309130028EEF82BFB19B6F
:1000800002C0AD9A01C0AD9840910C024F5F409301
:100090000C02403130F136FD22C035FF20C03093D4
:1000A0000502209304021092030210920202809132
:1000B0000602909107022817390759F48091FC0134
:1000C0008F5F8093FC01833350F082E38093FC01C7
:1000D00006C030930702209306021092FC0120E034
:1000E00030E09091540286B3892781FF1AC0892F8E
:1000F00080958093540210920302109202024530C0
:1001000018F420E030E005C02115310511F04B3026
:1001100040F036FD02C0220F331F81FF2160109294
:100120000C028091020290910302019690930302C7
:10013000809302028150934050F081E080935102FD
:1001400081E093E0909303028093020202C0109238
:1001500051023093300220932F029F918F914F9143
:100160003F912F910F900FBE0F901F9018955D9BA0
:10017000FECF8CB90895FC0105C080815D9BFECF48
:100180008CB93196615070408FEF6F3F7807A9F7B7
:1001900008952F923F924F925F926F927F928F922B
:1001A0009F92AF92BF92CF92DF92EF92FF920F9306
:1001B0001F93CF93DF93CDB7DEB7A0970FB6F89418
:1001C000DEBF0FBECDBF1C013A014B0198E69983FB
:1001D000842F8F5F8A838B839C8320915C01822F85
:1001E00090E08170907035E0880F991F3A95E1F7A3
:1001F00083658D832F5F20935C01F10180818E8365
:1002000026E0E22EF12C012D112D21E030E040E01E
:1002100050E060E02E010894411C511C0EC0F10119
:10022000E20FF31F8081AE0DBF1D8C938601750117
:10023000680F2F5F3F4F4F4F5F4FD201570168014B
:100240000894A11CB11CC11CD11C261537054805FA
:10025000590528F3F201EE0DFF1D8E819D81890F56
:10026000860F8083F201EA0DFB1D86E180831092E8
:10027000F2018A81992787FD90950696909309024D
:10028000809308026091080270910902C20173DF35
:100290008091F2018823E1F3A0960FB6F894DEBFB7
:1002A0000FBECDBFDF91CF911F910F91FF90EF90C7
:1002B000DF90CF90BF90AF909F908F907F906F9086
:1002C0005F904F903F902F900895CF93DF93CDB7DD
:1002D000DEB7A0970FB6F894DEBF0FBECDBFFE010C
:1002E000319620E2DF011D922A95E9F731E1398349
:1002F0002CE02A833B832FEF2C8321EE2F83292FA1
:1003000033272D838E836058698749E050E060E091
:1003100070E0CF013EDFA0960FB6F894DEBF0FBEAF
:10032000CDBFDF91CF9108957F928F929F92AF9230
:10033000BF92CF92DF92EF92FF920F931F93CF93D2
:10034000DF939C01762EB6E096958795BA95E1F7F6
:100350008F718A3009F07BC0C90180959095880F14
:10036000892F881F990B9195F0E4BF2EB822822F18
:100370008F73B82A232F3327269526952695882410
:100380008394822270E9C72E71E0D72E6EE6E62EA6
:1003900061E0F62EAA24992400E010E0F801E35A67
:1003A000FE4F8081B81609F046C0772039F0F6017B
:1003B000C081D181F801ED53FE4F06C0F701C08125
:1003C000D181F801EE54FE4FE081E23391F0E33346
:1003D00038F4E130D1F0E13050F0E430C1F40CC039
:1003E000E336A9F1E03879F0E03489F407C09924C4
:1003F0000EC0882041F402C0982C09C0AA24A394FE
:1004000059E0952E04C0AA24A39499249394692DAD
:1004100070E0772071F0CE0158DF8091510288237F
:10042000E1F3AA2041F060E070E0CE014EDFAA24A3
:1004300002C0CE014ADF0F5F1F4F82E090E0C80E7E
:10044000D91EE80EF91E0131110509F0A7CFDF9181
:10045000CF911F910F91FF90EF90DF90CF90BF90C1
:10046000AF909F908F907F9008951092010210920C
:100470000002292F332720BD89B988E98AB986EA85
:1004800080BD08951092F20164E070E084ED91E087
:1004900072DE8091F2018823E1F31092F2016EE0A6
:1004A00070E088ED91E067DE8091F2018823E1F34E
:1004B0001092F2016CE070E086EE91E05CDE8091DB
:1004C000F2018823E1F3089580911402893209F042
:1004D000B5C080911502807F803B09F0AFC080914C
:1004E000180220911902992787FD9095982F882747
:1004F000332727FD3095822B932B9093F90180931E
:10050000F80180911A028F708093FD0180911B0287
:1005100020911C02992787FD9095837C9070982FDD
:100520008827332727FD3095822B932B90930B023E
:1005300080930A028FEF9FEF9093530280935202B1
:1005400080910A0290910B02807C90930B02809321
:100550000A02E0E6F0E080910A0290910B0222810B
:10056000338182239323248135818217930731F4C9
:10057000808191819093530280935202369621E0BC
:10058000EC35F20741F78091F8019091F901892F3C
:1005900099278695869586959093FF018093FE0115
:1005A0008091F8019091F90180709770892F9927B7
:1005B00090930E0280930D028091F8019091F901C1
:1005C00090709093500280934F028091FD01823091
:1005D00061F0833081F08130E9F480911C02992729
:1005E00087FD90958F73907017C080911D02992799
:1005F00087FD909511C080911D0220911E029927C0
:1006000087FD9095982F8827332727FD3095822BDB
:10061000932B02C08FEF9FEF9093FB018093FA0121
:1006200080915202909153028150904121F080912B
:1006300052029091530281E08093F40108951F9239
:100640000F920FB60F9211242F933F934F935F9306
:100650006F937F938F939F93AF93BF93EF93FF938A
:100660002CB18091000290910102FC01E15FFD4FED
:1006700020830196909301028093000280910002F2
:10068000909101020197A1F4253E91F4109201028C
:10069000109200021092F7011092F60181E080930F
:1006A000F201E0910002F0910102E15FFD4F108242
:1006B00080910002909101020497C0F080910F0296
:1006C0008836A1F49091100280911102981771F46C
:1006D00080911202883651F480911002992787FD8B
:1006E000909506969093F7018093F6012631A1F438
:1006F00020910002309101028091F6019091F70162
:100700002817390748F0E0DE10920102109200022B
:100710001092F7011092F601FF91EF91BF91AF9106
:100720009F918F917F916F915F914F913F912F9109
:100730000F900FBE0F901F901895CF93DF93A59A3F
:1007400084E083BF81E089BF8BE090E08EDE789407
:1007500099DEF894C0910402D09105027894209714
:10076000C1F380915102882381F060E0CE01DCDD8D
:10077000109205021092040208C061E0CE01D4DD9F
:100780001092050210920402E4CF8091FC018530A2
:10079000A0F7DFCF5D9BFECF85EE8CB90895939ACD
:1007A00000C093980895CF93DF93662311F0929A37
:1007B00001C09298C0988C9A8D9A8E9A8F9A979829
:1007C00096989598949887FD979AC82F86FD969A43
:1007D000C5FD959AC4FD949AE2DF979896989598EE
:1007E0009498C3FD979AC2FD969AC1FD959AC0FD53
:1007F000949AD5DF949A959A969A979ADF91CF9189
:100800000895882311F0929A01C09298C09A8C980A
:100810008D988E988F98939A00C0849B02C080E137
:1008200001C080E08599806286998064879980689C
:10083000939800C0939A00C08499816085998260E2
:100840008699846087998860939890E0089580E005
:10085000D8DF87FDFCCF81E090E00197F1F780E0E1
:10086000D0DF90E008951F93182FF1DF60E0812F13
:100870009ADF1F9108951F93182FE9DF61E0812F00
:1008800092DF1F910895662311F4805801C08054AF
:10089000EADF0895DCDF90E0089581E0E4DF089569
:1008A00082E0E1DF08951F93182FD1DF1A3041F461
:1008B000803410F480E401C080E08058D4DF03C0AD
:1008C00061E0812F70DF1F910895CF93DF93EC01DA
:1008D00001C0E9DF89918823E1F7DF91CF91089585
:1008E000CF93DF93EC0101C0DEDFFE0121968491FE
:1008F0008823D1F7DF91CF910895FF920F931F9333
:10090000F82E8A9AB89A8B9A8C9A8D9A8E9A8F9A88
:1009100080E999E30197F1F7959A949A40DF85EF82
:1009200091E10197F1F73BDF0AE310E0C80101977D
:10093000F1F735DFC8010197F1F7949830DFC8016E
:100940000197F1F788E28FDF88E08DDFA6DF86E090
:100950008ADF8F2D88DF1F910F91FF900895FFCFC1
:100960000010C0FF00000110C0FF40000210C0FFD7
:1009700080000310FFFFC0001010FFFF00011110E6
:10098000FFFF40012010FFFFDC032110FFFFDD030C
:100990002210FFFFDE033010FFFFDF033110C0FF26
:1009A00080413210C0FFC0414010F0FF00424110B2
:1009B000F0FF40424210F0FF80425010FFFFC04263
:1009C0005110FFFFC1425210FFFFC2425310FFFF00
:1009D000C4426010FFFFC5426110FFFFC6427010A5
:1009E000C0FF00437110C0FF40438010C0FF804330
:1009F0009010FFFFD043A010FFFFD143A110FFFFD5
:100A0000D243B010FFFFD343B110FFFFD443C01057
:100A1000FFFFD543C110FFFFD643C210FFFFD743EE
:100A2000D010FFFFD843D110FFFFD943F01000FFD3
:100A30000080F11000FF0180F21000FF0280F3102F
:100A400000FF0380F31000FF00C0F51000FF01C09D
:100A5000F61000FF02C0F71000FF03C001010203FF
:100A6000040506070809000C0D0F10112021000BCA
:100A7000010B01210121002100210221022103217A
:100A8000032108500E5002500050150B020B050BAD
:100A9000000A010A0120012000200020022002207B
:100AA0000320032008500E5002500050150B020B7B
:100AB000050B04040100010001000100040404040A
:100AC0000404043232000100010001000163636389
:100AD00063636363104040166808086873A996183A
:100AE0003456780AD6166806066853A60101160021
:020AF0001116DD
:00000001FF
